S0130000666C6173686C6F616465722E737265638C
S3152020A000B05A0020A95821207BAC2020393B212082
S3152020A0107BAC20207BAC20207BAC202000000000C5
S3152020A0200000000000000000000000007BAC202083
S3152020A0307BAC2020000000007BAC20207BAC2020A5
S3152020A040D9692120D9692120D9692120D9692120BE
S3152020A050D9692120D9692120D9692120D9692120AE
S3152020A060D9692120D9692120D9692120D96921209E
S3152020A070D9692120D9692120D9692120D96921208E
S3152020A080D9692120D9692120D9692120D96921207E
S3152020A09065522120D1582120D9582120E15821202C
S3152020A0A0E9582120F1582120F95821200159212031
S3152020A0B0095921201159212019592120215921209E
S3152020A0C0295921203159212039592120415921200E
S3152020A0D04959212051592120D9692120D969212066
S3152020A0E0D9692120D9692120D9692120D96921201E
S3152020A0F0D9692120D9692120D9692120D96921200E
S3152020A100D9692120D9692120D9692120D9692120FD
S3152020A110D9692120D9692120D9692120D9692120ED
S3152020A120D9692120D9692120D9692120D9692120DD
S3152020A13059592120D9692120D9692120D96921205D
S3152020A140D9692120D9692120D9692120D9692120BD
S3152020A150D9692120D9692120D9692120D9692120AD
S3152020A160D9692120D9692120D9692120D96921209D
S3152020A170D9692120D9692120D9692120D96921208D
S3152020A18013B12020D9692120D9692120D9692120FC
S3152020A190D9692120D9692120D9692120D96921206D
S3152020A1A0D9692120D9692120615921206959212065
S3152020A1B0D9692120D9692120D9692120D96921204D
S3152020A1C0D9692120D9692120D9692120D96921203D
S3152020A1D0D9692120D9692120D9692120D96921202D
S3152020A1E0D9692120D9692120D9692120D96921201D
S3152020A1F071592120D969212079592120815921205D
S3152020A200D969212047692120895921209159212046
S3152020A210D9692120D9692120D9692120D9692120EC
S3152020A220D9692120D9692120D9692120D9692120DC
S3152020A230D9692120D9692120D9692120D9692120CC
S3152020A240D9692120D9692120D9692120D9692120BC
S3152020A250D9692120D9692120D9692120D9692120AC
S3152020A260D9692120D9692120D9692120D96921209C
S3152020A270D9692120D9692120D9692120D96921208C
S3152020A280D9692120D9692120D9692120D96921207C
S3152020A290D9692120D9692120D9692120D96921206C
S3152020A2A0D9692120D9692120D9692120D96921205C
S3152020A2B0D9692120D9692120D9692120D96921204C
S3152020A2C0D9692120D9692120D9692120D96921203C
S3152020A2D0D9692120D9692120D9692120D96921202C
S3152020A2E0D9692120D9692120D9692120D96921201C
S3152020A2F0D9692120D9692120D9692120D96921200C
S3152020A300D9692120D9692120D9692120D9692120FB
S3152020A310D9692120D9692120D9692120D9692120EB
S3152020A320D9692120D9692120D9692120D9692120DB
S3152020A330D9692120D9692120D9692120D9692120CB
S3152020A340D9692120D9692120D9692120D9692120BB
S3152020A350D9692120D9692120D9692120D9692120AB
S3152020A360D9692120D9692120D9692120D96921209B
S3152020A370D9692120D9692120D9692120D96921208B
S3152020A380D9692120D9692120D9692120D96921207B
S3152020A390D9692120D9692120D9692120D96921206B
S3152020A3A0D9692120D9692120D9692120D96921205B
S3152020A3B0D9692120D9692120D9692120D96921204B
S3152020A3C0D9692120D9692120D9692120D96921203B
S3152020A3D0D9692120D9692120D9692120D96921202B
S3152020A3E0D9692120D9692120D9692120D96921201B
S3152020A3F0D9692120D9692120D9692120FFFFFFFF92
S3152020AC00002A01D101207047F0B41F4603460324B1
S3152020AC102340002B09D00424E31A01700130082494
S3152020AC20E141521E26D05B1EF7D1042A1ADB13D00F
S3152020AC30002F11D00C460D460E46102A02DB72C07C
S3152020AC40103AFAE70C2A02DB32C00C3AFAE7082A35
S3152020AC5002DB12C0083AFAE7042A03DB016004303B
S3152020AC60121FF9E7002A05D0017001300824E1419E
S3152020AC70521EF7D1F0BC00207047FEE731B72020C6
S3152020AC800000000053B720200000000087B82020B5
S3152020AC9015BA202015B8202027B92020EFBA202049
S3152020ACA00000000000000000000000008BB72020DC
S3152020ACB00000000063B7202027B920200FBB2020CA
S3152020ACC0000000006DBB202000000000E5B62020FB
S3152020ACD000000000BBB7202000000000000000007C
S3152020ACE00000000099BB202000000000BBBB2020D4
S3152020ACF000000000E7BB202015BA2020D1B7202055
S3152020AD000000000000000000000000002BB82020DA
S3152020AD1011B92020090000007FC320202001000037
S3152020AD204FC820200000000000000000E5BE2020A3
S3152020AD3079C0202091C0202011C12020C5C12020EB
S3152020AD40C7C2202085512120035221201D52212097
S3152020AD5000000000000000005152212099D0202020
S3152020AD60FDCD202057CE20203BCF202075CF202060
S3152020AD7085CF2020D5CE202095062120990621205A
S3152020AD80A5062120B5062120000000000000000095
S3152020AD900100000001000000ADB0202044AD20209D
S3152020ADA054AD202008AE2020100000000100000015
S3152020ADB00000000024AE20200000000034AE202019
S3152020ADC0000000000000000000000000000000003D
S3152020ADD00000000000000000B1522120CD52212089
S3152020ADE08353212041542120A42C002039C5202002
S3152020ADF075C620200FC72020D9C7202081C5202016
S3152020AE00BBC72020CDC720203155212037552120D2
S3152020AE10A55521203D562120355521204956212032
S3152020AE20115521209D652120A96621208167212079
S3152020AE30DF672120ED6721201168212095682120B8
S3152020AE402D6921203D692120416921200000000013
S3152020AE5038B504463E4D00202862C5E90000C5E9E4
S3152020AE600200C5E9040068623A4800F0ADF8C5E959
S3152020AE70060120460FF25D01BDE8344000F056B9A8
S3152020AE8000F06AB970B50C46314D296A072904BFEE
S3152020AE906A6A90421BD100F0C9FA03460A26C3EB00
S3152020AEA00313D5E90021D5E9020182184FF49665CE
S3152020AEB0B3FBF2F00A234FF496625843B0FBF5F524
S3152020AEC06D1D0020B5FBF6F65643266070BD012089
S3152020AED070BD00002DE9F8431D4F064600F06AF8A4
S3152020AEE03A6A0446D7E904598846521C651BD7E995
S3152020AEF0060168EB0909494502D82CBFA842012240
S3152020AF00012A3A6206D0042A08D0052A0ED0072A1A
S3152020AF100FD018E0C7E900487E6214E0D7E9000187
S3152020AF20201A68EB0101C7E900010CE0C7E90248B5
S3152020AF3009E0D7E90201201A68EB0101C7E90201DD
S3152020AF40304600F009F9C7E90448BDE8F18300003E
S3152020AF50001800208038010080B52C482C4A016832
S3152020AF6041F440510160002010602A484FF0FF3103
S3152020AF700022016182610122C261826942F00402BB
S3152020AF808261836943F00103836101600121C160ED
S3152020AF90816000F04BFAC0001F49B0FBF1F000B9E8
S3152020AFA001201E49886001BD1948016841F002012F
S3152020AFB00160704781B01A48016842680092009863
S3152020AFC001B0C943C043704714498A68A2FB0001D7
S3152020AFD0C00840EA4170C908704738B50446FFF7D3
S3152020AFE0E9FF00F00BF8241841EBD505FFF7E2FF27
S3152020AFF0A942FBD301D8A042F8D331BD074A936892
S3152020B000A3FB0445E40844EA457470476CC00F400E
S3152020B010004008400041084040420F0028180020E8
S3152020B020E04008400901020081B002D455488154ED
S3152020B03005E0554A00F00F00104400F8041C01B02A
S3152020B040704710B5039C01F00701240104F0100479
S3152020B0502143016002B1136010BD0021016002B1BD
S3152020B0601160009808B1019901607047FEB5089ECD
S3152020B0700027099C0A9D01970096FFF7E2FF30687A
S3152020B080012202FA05F540F410403060616821EA79
S3152020B09005056560F7BD3EB5069C00250195009403
S3152020B0A0FFF7CFFF47F2B000206037BD7FB5374C82
S3152020B0B0374D3848384A19B1022919D00DD37FBDCA
S3152020B0C041F2B00600950196002300F01EF8019665
S3152020B0D00023009500F019F87FBD07212F4B029100
S3152020B0E005210193002300920022FFF7BFFF7FBD99
S3152020B0F0009200230022FFF7CEFF00950023002296
S3152020B10002212046FFF7C7FF7FBD002202212046CD
S3152020B110A3E71CB5224C2068000606D5214949689C
S3152020B12019B1012088478020206013BD10B51D4805
S3152020B1301A4C416004220721204600F033FA606928
S3152020B140012140F0800060615020FFF76BFF4FF413
S3152020B15080301549086010BD80B54FF480301349E2
S3152020B1600860BFF34F8FBFF36F8F00215020FFF76A
S3152020B17059FF00220721094800F014FA0020094926
S3152020B180486001BD00E400E018ED00E0D4801F40B7
S3152020B19048821F40D8801F404C821F4000801B4081
S3152020B1A018801B409C2C002008E100E088E100E06C
S3152020B1B0002808BF00F01EB87047AA48AA4A01688E
S3152020B1C041F00301016040201060A8484FF0004262
S3152020B1D04FF080418263816300210160A448016889
S3152020B1E041F4C0110160A34802685208520002604F
S3152020B1F001207047F0B5A048A0490860A0480669FC
S3152020B2000121A04D0068A04BA04C760D06F0030628
S3152020B21001FA06F6296AC0F38000CA0340F17F802E
S3152020B2202A6A22F480522A62296A0029FCD52A6AAF
S3152020B230974942F480322A62964A176927F03F3787
S3152020B2400F4317614FF44051296029680029FCD506
S3152020B2502F6827F480372F60116821F03F378E49D9
S3152020B2603943116048B17600082E214688BF08262A
S3152020B270B1FBF6F10122894F02E01946F8E7521C6C
S3152020B280B1FBF2FCBC45FAD2854F8649D7F800C0DF
S3152020B290521EA6F1010E4FEA8E2E0EF4E05E01EA32
S3152020B2A00C0C110401F4E02141EA0C0112024EEAB1
S3152020B2B0010102F440720A433A603969C909C90179
S3152020B2C041F00301396120B1796821F44021796068
S3152020B2D005E07A6822F4402242F400227A607968D6
S3152020B2E0714A114041F040617960BA686F49114036
S3152020B2F041F0C74141F00101B960BA6842F44032B9
S3152020B300BA60396921F4E72141F4843139612A6A06
S3152020B31022F480322A62296821F48031296000B102
S3152020B3202346B3FBF6F0624A1060F0BD8EE0002A79
S3152020B33070B518BF012A3ED156485E4B04681D6859
S3152020B340A409002A0CBF0FF2A0120FF2B0120E0091
S3152020B35025F060752FD00A29A8BF012112F8116087
S3152020B36002EB41014A78544906F03F0646EA841406
S3152020B3700E68521ED20502F06072154346F0020670
S3152020B3800E605A6E22F440625A66BFF36F8F0668AB
S3152020B390B44218BF04601868854218BF1D60586ED5
S3152020B3A040F440605866BFF36F8F0A6822F002028D
S3152020B3B00A60BFF36F8F70BD2A48016841F440614F
S3152020B3C003E02848016821F440610160BFF36F8FB4
S3152020B3D0704730B5364C002300202468304D19B1F3
S3152020B3E0022907D002D316E0234615E02968C1F3A7
S3152020B3F001210CE0A968274B1968304CAB6801F075
S3152020B4003F01B4FBF1F412214C43C3F3C251491C32
S3152020B410B4FBF1F300E00420136030BD0246042083
S3152020B4201AB911B126480860002070471C48204AC6
S3152020B430016880681368C1F30121491C00F03F0090
S3152020B440401CB3FBF1F1B1FBF0F0704714481849CA
S3152020B45000680A68C0F30120401CB2FBF0F0704758
S3152020B4600000000080C00F4014800D4000900D4049
S3152020B470B0810D4040012E4000366E01202B002049
S3152020B48060441F4010800D40007B9A1700A4781F2F
S3152020B49018181318F0800D4023231A0F01449508FD
S3152020B4A014C00F40FFE0F8FFCFFFFFE380FF7F9C13
S3152020B4B0C80000201CC00F4000802A4000389C1C59
S3152020B4C0406BED0738B504460D4602E00120FFF714
S3152020B4D084FD20462946441E61F100050022914222
S3152020B4E008BF9042F2D131BD000022081608180666
S3152020B4F01E0412060E060D050D041602000018065F
S3152020B50016040C061E021203160221010D02160134
S3152020B510F8B506460C46154600200FF2F00151F8E4
S3152020B5202020B24202D0401C0628F8D30FF2F40184
S3152020B530144A31F910000127A74000F01F01000A04
S3152020B54002EB8000032202FA01F102688A431143AA
S3152020B55001607069F94308407061287818B97268CB
S3152020B5601140716007E06A782146304600F00CF8D9
S3152020B570706807437760AA7821463046BDE8F840B0
S3152020B58010E0000068C00F4081B00123002A026825
S3152020B59003FA01F10CBF22EA01011143016001B037
S3152020B5A070470000F8B5C369012404FA01F5AB43BE
S3152020B5B01029C36132BF00F10C0300F110031039AA
S3152020B5C0490003268E40F743521E042A1DD8DFE861
S3152020B5D002F003070D151900186807401F60F1BDFA
S3152020B5E018688C4007403C431C60F1BD1868074012
S3152020B5F0022000FA01F139431960F1BD186806438B
S3152020B6001E60F1BDC1690D43C561F1BD000000007A
S3152020B61000801B4000C01B4000001C400000000092
S3152020B62000000C40FFFF1A011E001A02FFFF1E0118
S3152020B630DFF8D81600200A69D36818607047F8B555
S3152020B640DFF8C8660024306A8DF800404569002D51
S3152020B65046D03169C9680F68012F30D06C6801F156
S3152020B66008020023091DA04704001FBF42F21270C2
S3152020B670844242F21370844232D13069C268916882
S3152020B68000292DD0546823781D0006D0142B04DAE7
S3152020B690806800EBC300083800E0002000285062B4
S3152020B6A01CBF0268002A03D020460024904713E0BE
S3152020B6B042F210741946204600F0ACFA10E0486A8F
S3152020B6C058B1416811B16846884704460CB100201C
S3152020B6D003E09DF8000000B101203169CA6810609E
S3152020B6E02046F2BD80B50178002000F093FADFF8DD
S3152020B6F01C26106A41690A699047022000F056FBF1
S3152020B700BFF34F8FDFF80816DFF808060A6802F421
S3152020B710E06202430A60BFF34F8F00BFFDE7DFF8E8
S3152020B720EC0518210269D36803F10C0000F06ABBEE
S3152020B73010B504466068092803D0B0F5907F03D061
S3152020B74005E000F0F0FD03E001F064F800E00420BD
S3152020B7501EE2DFF8B83570B500F0D3F9AE69B047F0
S3152020B760CBE110B500F08DF8DFF8A00562680169FD
S3152020B770C8680821026180F820102178002000F076
S3152020B78049FABDE8104001F09DBA7CB50021DFF8CA
S3152020B7907C450191E5680091816840686B46AE68DA
S3152020B7A001AAC0B2B04722690021D3681961009A44
S3152020B7B00199920800F041FA73BDDFF8502538B57B
S3152020B7C0D36804466068A168DD68C0B2A847DBE17B
S3152020B7D038B5044604206268092A03D1A06800F0FF
S3152020B7E083FB13E0C2F3032101290FD169461046BA
S3152020B7F001F01EFC50B9009DDFF810251421936816
S3152020B800A0684D4359190A6913699847217800F091
S3152020B81001FA31BD10B500F034F800F041F80421CA
S3152020B82080F8201021780020B3E170B5DFF8DC54B1
S3152020B83000F027F829691320DFF8DC64CA6882F82B
S3152020B84020002969E068CA6882F82100E06838B9B2
S3152020B85029691022C86802614661217800204DE1BD
S3152020B86006F11001304601F03DFC28694821C068C8
S3152020B870016106F11001416148210020BDE8704098
S3152020B880FAE104464BE710B5FFF7FBFF00F008F876
S3152020B890032180F82010A1680020BDE81040F0E1A7
S3152020B8A0DFF86804E2680169C8688261A1680161DD
S3152020B8B061684161704738B50446DFF850542869DD
S3152020B8C00021C0684161016190F82000042804D13C
S3152020B8D029680A69904704B9044628684169884737
S3152020B8E004B904462969C86890F82010204600F03B
S3152020B8F091F942F212718C4201BF2869C16891F8F0
S3152020B9002020082A03D1BDE8314001F01EBA31BDDE
S3152020B910DFF8F8130A69D36893F82110002908BFA5
S3152020B92000F001B876E02DE9FE4300F0DAF821B9DF
S3152020B93000203070FFF7BFFF69E00121012331701D
S3152020B940D0F818900569D0F8148000206A46009017
S3152020B950386A01A94469D4F804C0E047040009D014
S3152020B960386A4169CA6890472046FFF7A4FF00201D
S3152020B97030704DE0009838B942F21270FFF79BFFE5
S3152020B98000210020317043E0A84288BF284600903D
S3152020B9903869C06890F82010082912D10199C16011
S3152020B9A00099C1610099019801F096F9044642F266
S3152020B9B07D7084421CBF42F27470844214D10024CC
S3152020B9C012E0132905D1009A0199404601F0F2FB95
S3152020B9D008E03C68019A00994B464046D4F808C0B6
S3152020B9E0E04704460098804400982D1A04D04CB194
S3152020B9F0386A4169CA6890472046FFF75CFF0020D5
S3152020BA00307004E03969C9680D61C1F814800020BE
S3152020BA10BDE8FE832DE9F84F00F063F821B9002018
S3152020BA203070FFF748FF59E00121DFF8F0A231708E
S3152020BA30816900910569D0F81480C46890F820B0F7
S3152020BA40386A41694A6990478146A94588BFA946EF
S3152020BA50ACB14A462146504601F0ACFB386AA5EBEC
S3152020BA60090401234A4651464569D5F808C0E047CE
S3152020BA7004B170B3FFF71FFF002030702EE0BBF11A
S3152020BA80030F09EB080419D1D7F800C04046009BC4
S3152020BA9052464946DCF80480C0475FEA000BA046A0
S3152020BAA0DCD0386A0123002251464469A568A8477C
S3152020BAB05846FFF700FF0020307010E0BBF1130F2F
S3152020BAC001D0A046CAE74A464146504601F072FBBD
S3152020BAD0F7E73869C0680461C0F814800020BDE803
S3152020BAE0F28F0646894F3869C06801697047874BAF
S3152020BAF070B500F006F8EE68B0472178BDE87040B2
S3152020BB0088E01D680446E268A168606870472DE9D0
S3152020BB10F0410546824F6E68D5F80880E8680024F3
S3152020BB20386018B101F0C9FB00B90424304601F071
S3152020BB30ADFB00B904242978204600F06BF89CB987
S3152020BB407E60002000F032F9C7F80880386818B1E6
S3152020BB5080F3088880F30988796840468847002042
S3152020BB60BDE8F04100F022B9BDE8F08138B50446A1
S3152020BB70606801F08BFB08B9042005E06568012088
S3152020BB8000F014F9A068A8472178BDE8344041E0A8
S3152020BB902178BDE810403DE038B5044601F076FC1A
S3152020BBA0A368616804F10C025E4801F0B3FC0546E7
S3152020BBB001F072FC21782846E7E73EB500210446AD
S3152020BBC0CDE9001101F062FCA36861686A465548F8
S3152020BBD001F0F5FC054601F05FFCA268694628467F
S3152020BBE000F06AF837BD10B5FFF74BFE4748A2682C
S3152020BBF00169C9680A6162684A61102281F8202099
S3152020BC000069E168C268002082F82110A168BDE899
S3152020BC10104089E03EB501903C48006A00238DF80B
S3152020BC200130A0228DF802308DF8002002228DF8D6
S3152020BC3003200C220291446933E038B588B0A7232B
S3152020BC408DF80030002400250190531C8DF80140EA
S3152020BC508DF8025000208DF8033006E06C4651F80E
S3152020BC60203004EB8004401CA3609042F6D3274862
S3152020BC709DF80320006A3EE03EB500F016F8B32278
S3152020BC8003E03EB500F011F8A3228DF80020012311
S3152020BC9002228DF801308DF8032000230291446979
S3152020BCA00C226946A568A84737BD01901748006A27
S3152020BCB000248DF80240704738B588B0AF238DF820
S3152020BCC00030002402238DF801408DF802408DF8A3
S3152020BCD00330019050B99DF80300029200EB9200A8
S3152020BCE08DF8030003A801F075FA00E002949DF870
S3152020BCF003200649086A0023694644699200121DDA
S3152020BD00A568A84709B030BD00000000100000201B
S3152020BD100CED00E00400FA055C1C00205C180020D5
S3152020BD20B41C002000401F403EB5FFF7BEFFB022C6
S3152020BD30ABE7F0B40246106895681318506803EBF9
S3152020BD405004C00721D54D441FE0F0BC02F10C0061
S3152020BD50704713F8017B05F8017B491EF9D1A0B164
S3152020BD60B60813F8011B06F00306032E08BF13F8A6
S3152020BD70016B01EB06214942801C294405D011F88C
S3152020BD80016B05F8016B401EF9D1A342DDD013F8D3
S3152020BD90016B16F0030104BF13F8011BC91C3009DF
S3152020BDA00F28DAD113F8010B0F30D6E701287CB5FE
S3152020BDB004460DD00025114E05E07018C16889680B
S3152020BDC001B188476D1C1821694370580028F4D189
S3152020BDD074B901F05BFBFFF7E7F801F067FC002060
S3152020BDE0074908600120FFF7E3F901F07BFD62B6E1
S3152020BDF0BFF36F8FBFF34F8F73BD00BF90AD202051
S3152020BE0008ED00E0002201F09DBD0000BFF34F8F1A
S3152020BE10DFF8082602E01060203020390129FADADE
S3152020BE20BFF34F8FBFF36F8F704730B50446042082
S3152020BE30002C85B01EBFDFF8E825117800294FD0C9
S3152020BE4023681D0F0B2D4BD1C3F30361012902F566
S3152020BE5082650CD0002943D1204601F08DFD002893
S3152020BE6011BF0021A16869600121297038E0297855
S3152020BE70002935D013F00F0F32D1002004A90490C9
S3152020BE800390012000F07BFA50BB03A9102000F07C
S3152020BE9076FA28BB01A9032000F071FA00BB6C6852
S3152020BEA0049D694602A801F09EFD6519C0B9009A35
S3152020BEB00399A418A14213D3019A521E15420FD1D9
S3152020BEC00199284600F047F910B942F2DB7007E0C5
S3152020BED0029A0099284600F0DBF808B900F072F99A
S3152020BEE005B030BD01207047F8B5ADF5007D074679
S3152020BEF0042401F0CBF900286CD007F2FF1001F0C2
S3152020BF00C5F9002866D03868DFF8145505F583660C
S3152020BF10010F0C2918D13A463146002003F05AF950
S3152020BF20040057D100203146287001F07BFD040003
S3152020BF3050D1002004F01CF86946102000F01FFA8A
S3152020BF4000285FD0044645E0DFF8D81488420BD17C
S3152020BF502878002849D000F08AF801F0B7F8002880
S3152020BF605CD142F2DB7435E0DFF8BC14884206D17E
S3152020BF704FF400723946304601F01CF9D2E7000F03
S3152020BF800E282BD1287828B3384604F089F908B30F
S3152020BF90384604F08EF904001CD101206870002553
S3152020BFA06A4601A9284604F090FA80B9DFF87C6415
S3152020BFB04FF4007106EB8526304600F0CCF830B1E0
S3152020BFC0019A0099304600F063F800F0FBF86D1CCA
S3152020BFD0012DE5D920460DF5017DF0BD0B280ED18A
S3152020BFE03846FFF722FF0400F4D168780028D6D1FE
S3152020BFF004F04EF90028EDD001216970EAE70020EF
S3152020C0006870E7E7DFF82814012088630A6B009818
S3152020C0108218521E4A6301212970E6E705F2DC5771
S3152020C020B87970B100200DF101032A1892F819244D
S3152020C0300DF80020325C1A54801CB0F5007FF4D312
S3152020C0406E46324600F013F800F022F8040004D0A1
S3152020C05000F00DF800F0CEF9BCE700F0B3F80400AC
S3152020C060C3D039684FF0C04000F02DF9B2E74FF425
S3152020C07000714FF0C040704710B5DFF8A4432378F5
S3152020C08013B942F2DD7010BDBDE8104004F004BBA8
S3152020C0902DE9F8430C46DFF8887339780546914612
S3152020C0A089BB42F2DD7031E0B87868B9D7F8D81567
S3152020C0B0491E0D4202D044F6896027E001207D608A
S3152020C0C0B8700020B86004E0B86879680818A842DB
S3152020C0D016D1B868D7F8D88521184145494634BFA6
S3152020C0E02646A8EB0006384432461030751901F052
S3152020C0F061F8B868A41BB14430184045B86002D115
S3152020C10000F060F810B9002CCED10020BDE8F283D3
S3152020C11076B50D460646DFF80813087810B942F2A0
S3152020C120DD7076BDAC08A40005F0030507E001AA62
S3152020C13004213046FFF7ACFF60B9361D241F002CA2
S3152020C140F5D12DB101AA29463046FFF7A1FF08B91E
S3152020C15000F038F876BDF8B50C460646B049ADF560
S3152020C160806D4878012720B12146304604F083F996
S3152020C170B0B92146304600F0A9FF074638460DF5CE
S3152020C180806D01B0F0BD491CB1EB950F06D250F859
S3152020C190043B13F1010FF6D00020F0E7641BAE1903
S3152020C1A0002CEBD04FF48065B4F5806FA048016B4E
S3152020C1B0684698BF25462A46711A00F024F9684613
S3152020C1C00021E1E72DE9F843954E0024B078ADF51E
S3152020C1D0806D002871D0B470D6F8D845B068A042BA
S3152020C1E006D0211A06F11003FF22184404F06CFA17
S3152020C1F070682146FFF7AFFF10B942F2DB705DE091
S3152020C200D6F8D815706804F036F940B1D6F8D81586
S3152020C210706806F1100204F09FF904004DD1844F76
S3152020C220746801F033F9386B06F1100306F5836143
S3152020C230221A002001F0F5FC044601F02DF90020F9
S3152020C240002CB070B06038D100F069F804D5D6F84B
S3152020C250D8157068FFF7DAFD7078D6F8D85506F12C
S3152020C2601008D6F80490F0B12946484604F003F980
S3152020C270C8B115B34FF48066B5F5806F396B684623
S3152020C28098BF2E463246A9EB010100F0BCF8324673
S3152020C2904146684604F04CFA002802BFAD1BB14443
S3152020C2A0B044E6D006E02A4606F11001484604F0BE
S3152020C2B03FFA10B144F68A6000E020460DF5806DE5
S3152020C2C001B0BDE8F08370B50446554A107810B900
S3152020C2D042F2DD7070BDD2F8DC55684200EA0406D1
S3152020C2E00C19644204406442A41B2146304600F0C7
S3152020C2F081F898B92946304604F08DF900F00FF8D8
S3152020C30003D529463046FFF781FD21463046FFF7E3
S3152020C31022FF10B944F68A6070BD002070BD4548C2
S3152020C3200168CA037047E0B53D49087810B942F242
S3152020C330DD700EBD01F58361002001F0CEFCE8B949
S3152020C34001A9012000F01BF8C0B96946102000F091
S3152020C35016F898B90099019804F05DF9FFF7DFFFE8
S3152020C36003D500990198FFF751FD0099019800F017
S3152020C370ADFE10B944F68A600EBD00200EBD002900
S3152020C38018B52DD0264A02F5BB6302F58D6460B11F
S3152020C390012813D0022815D0032817D0042817D017
S3152020C3A0052817D0102818D01AE01078002814BF96
S3152020C3B0002042F2DD700860002012BD4FF0C042FE
S3152020C3C00A60F9E700F00EF8920AF9E71A68F7E70B
S3152020C3D05A68F5E7186918B1EDE700F003F8EFE79A
S3152020C3E0042012BD226860688218A0688218E0683E
S3152020C3F0821870470B4602460D49086B0E49121AC1
S3152020C400002002F0A9BF80B500920B4602460A49B9
S3152020C410002002F0DDFF02BD000000005CEF00E0FE
S3152020C420082500200F0000F0464346420004006005
S3152020C4305000002014ED00E020290020014601F0C4
S3152020C440FF0000F1804000F57C200A0A006802F0F7
S3152020C4501F02C1F34C3191400840D0407047F0B5BF
S3152020C46004460420002C85B01FBFDFF8082502F1E2
S3152020C470AA05A97D00295DD023681E0F0B2E59D130
S3152020C480C3F30361012902F1D4060CD0002951D12E
S3152020C490204601F071FA002811BF0021A1687160A1
S3152020C4A00121317046E03178002943D013F00F0F57
S3152020C4B040D1002004A904900090012000F0C7F963
S3152020C4C0002837D16946022000F0C1F990BB009898
S3152020C4D0DFF8A4144FF0FF34884202A928BF009425
S3152020C4E0052000F0B4F928BB7768049E01A903A88B
S3152020C4F001F079FABE19E8B9019A0099BF18B94214
S3152020C50018D3029A521E164214D12878C1070299AE
S3152020C510304658BF0024224600F005FA10B942F2D0
S3152020C520DB7007E0039A0199304600F0F0F808B94D
S3152020C53000F043F905B0F0BD38B5DFF83844DFF810
S3152020C5403C0420600C2004F069F90546DFF830040D
S3152020C550FFF774FF401CB5FBF0F06060204604F026
S3152020C560BFFA60B92046B43405F0F3F828B900F0B4
S3152020C5707CF820B900F06DF800E00021217332BD4F
S3152020C5807CB5044600F082FE68B1E01C00F07EFEF9
S3152020C59048B12068000F0B2803D12046FFF75FFF04
S3152020C5A076BD0D2801D0042076BDDFF8C853DC21C6
S3152020C5B02846FFF727FCDFF8C40328600C2004F068
S3152020C5C02DF90646DFF8B803FFF738FF401C05F1A2
S3152020C5D02801B6FBF0F068602068020B02F0070203
S3152020C5E00A70C20D030AC60C000E00F0030003F0E9
S3152020C5F0010302F0010201284B7006F001064A735E
S3152020C6000E7341F2883240F6C41306D002D3032893
S3152020C61008D005D344F6206005E042F2107002E0EF
S3152020C620104600E0184648602068C0F3005000B14C
S3152020C6301A468A60284605F08CF805F1B40428B9F4
S3152020C64000F013F820B900F004F800E0002121734F
S3152020C65076BD009B1421DFF82C2365684B43D11827
S3152020C660CD6022688A600121704769464FF4907018
S3152020C67000F0DEBC2DE9F84FDFF8F892824609F16A
S3152020C680C0060C463078904610B942F2DD703CE068
S3152020C6904FEA5A2509F1DC00AAEB45254FEA5A270D
S3152020C6A000900FE000985A46A4EB0B04411940460F
S3152020C6B000F080FD5D44B5F5007FD84424BFA5F564
S3152020C6C000757F1C04B3707878B1706887420CD3CC
S3152020C6D0411C8F4209D2AAEB40256019B0F5007F74
S3152020C6E094BFA346C5F5007BDCE700200099707037
S3152020C6F001233A46484605F06CFA002802BF01205D
S3152020C70070707760E9D000E00020BDE8F28F2DE937
S3152020C710F84FDFF8609209F1C006337813B942F258
S3152020C720DD703FE082464FEA5A2790460D46AAEB17
S3152020C73047274FEA5A2409F5377912E05A464146C7
S3152020C74009EB07005F4400F035FDF068B7F5007F60
S3152020C750A5EB0B05D8445844F06024BFA7F50077F5
S3152020C760641CF5B1307A18B33069A0421CD1411C23
S3152020C7708C4219D2AAEB4027F068B84209D000F0A3
S3152020C78088F80028EED00DE000203461F0600120EA
S3152020C7903072E819B0F5007F94BFAB46C7F5007B11
S3152020C7A0CCE70020BDE8F28F00F073F80028F9D1FD
S3152020C7B0002FE9D042F2DE70F4E76E4A002092F88C
S3152020C7C0C810002918BF00F064B870476E480021B1
S3152020C7D0C17101700020704770B50546654E96F8E8
S3152020C7E0C0000C4610B942F2DD7070BD304605F00F
S3152020C7F0E8F910B142F2E07070BD54B1690A6519AA
S3152020C8006D1E3046C1EB5522BDE87040521C05F006
S3152020C81029BA70BD38B5574C04F1B405287B10B918
S3152020C82042F2DD7032BD204605F0CBF910B142F23E
S3152020C830E07032BD28686968A1FB002320460021CC
S3152020C840520A42EAC352BDE8384005F00BBAF1B18C
S3152020C8504E4A30B101280DD002280ED0052814D0FA
S3152020C86015E0107B002814BF002042F2DD700860FE
S3152020C8700020704700220A60FAE710685368A3FB5D
S3152020C8800023920A42EA8352F5E75068EFE7042014
S3152020C89070472DE9F041374C204605F092F910B12A
S3152020C8A042F2E0703DE004F1CC0504F537782868A3
S3152020C8B004F1AA074FF0FF36B0F5007F09D039786A
S3152020C8C0CA07C0F5007140444CBF3246002203F00F
S3152020C8D0FBFE0020B8773878C107686858BF002645
S3152020C8E03246012100F01FF810B942F2DB7018E021
S3152020C8F06A6801234146204605F088F988B96A6886
S3152020C90004F1DC0701233946204605F062F940B9B7
S3152020C9104FF400723946404603F00AFF08B142F22E
S3152020C920DF70BDE8F0812DE9F843124E05460C460E
S3152020C930914606F1DC0816E03B462A46414630461B
S3152020C94005F047F948B9414600E0001DB0EB472FD6
S3152020C95008D251F8043B4B45F7D0002000E00120B7
S3152020C960BDE8F283E41B002CF9D0012C8CBF0127D3
S3152020C9702746E1E70C2E00200100400000002C4035
S3152020C98024EB0080A0000020CD2E0020C02E0020E9
S3152020C990416882688A4209D2891A826641600FF2EA
S3152020C9A099210160012181600020704742F2787030
S3152020C9B070470FF2090101600020704710B5416AC7
S3152020C9C0DFF810444A898282CA68921E42604B68E8
S3152020C9D0A34202D1097A022902DB42F2757010BDE8
S3152020C9E00FF209020260002010BD0000416A436850
S3152020C9F04A6882610A68D21E9A42826002D342F233
S3152020CA00767070470989002908BFFFF7C1BF42F217
S3152020CA1077707047F8B50446DFF8BC63B4F85A300F
S3152020CA20376804F15C05626A6968D7F808C0180679
S3152020CA30000F1B0A43EA00232868E047A0B9306884
S3152020CA400169884780B9616A102204F11C0005F02B
S3152020CA5047F900F044F80098A968884200D043E0BE
S3152020CA600FF2D51020600020F2BDF8B50446102222
S3152020CA70616A04F11C00DFF8606304F15C0505F0AF
S3152020CA802FF9B4F85A303768626A10211806000F39
S3152020CA901B0AD7F808C043EA00232868E047E8B9EC
S3152020CAA0286810302860686810381028686088BF89
S3152020CAB0DFF8280310D810B1DFF824030CE0306803
S3152020CAC00169884750B900F00AF80098A968884279
S3152020CAD000D009E00FF2611020600020F2BD6946E7
S3152020CAE004F11C0005F012B942F27A70F2BD10B59D
S3152020CAF0044604F11C0005F0EDF8216E11292CBF07
S3152020CB00B648B748E5E038B5B34B426E1C68016E8F
S3152020CB10C06DE568A84732BDB0F85A2013061B0F12
S3152020CB20110AD20741EA03214CBF082304230429F2
S3152020CB3001D00420704700F16002C16DA94800F0A1
S3152020CB40E9BC70B5044642F27F76E56D284600F0B2
S3152020CB509DFB80B1606E04F11801A8470646012E80
S3152020CB6003D12046BDE8704012E7022E03D100F003
S3152020CB70A9F8002070BD304670BD1CB5436800F171
S3152020CB805C02516881608B4202D242F2767016BDD9
S3152020CB90137ADC0707D512688469A24203D111B122
S3152020CBA0C160002016BD90F85A10CA0702D542F25D
S3152020CBB07C7016BDBDE81640EAE638B5B0F85A10A6
S3152020CBC08A070CD40B061B0F0A0AC90742EA03223E
S3152020CBD007D5092A03D1BDE83140FFF7A4BB04209D
S3152020CBE032BD7D4B5C301C6841680068A569A8472A
S3152020CBF032BD1CB50446B4F85A000106090F000AB6
S3152020CC0040EA0120092803D1E06DFFF76DF916BD12
S3152020CC1001290ED1694600F00BFA58B9E06D009C27
S3152020CC206D4A142193684C4319190A691369984748
S3152020CC3016BD042016BD0000F8B5044604F158069A
S3152020CC40616A304610225A2500F0C4FA0120375C4A
S3152020CC50401CED191028FAD3307805F0FF05A8429C
S3152020CC6002D042F27970F2BD717842F212700A290E
S3152020CC7025D8DFE801F01A060A0E26121A16261CD7
S3152020CC8020002046BDE8F24077E72046BDE8F24066
S3152020CC902DE72046BDE8F24035E72046BDE8F240A4
S3152020CCA04FE72046BDE8F24087E70020F2BD204628
S3152020CCB0BDE8F2409DE72046BDE8F2402CE742F24F
S3152020CCC07B70F2BD10B5484C70212046FFF79AF8AC
S3152020CCD046482060002010BDF8B506460C460020A8
S3152020CCE00027434DA74218D02969E01BC1F1100126
S3152020CCF009E080B12B69F25D7F1C491E401EEA5453
S3152020CD002A69521C2A610029F3D10020286100F0CB
S3152020CD1005F810B9E6E742F27D70F2BD80B53248BB
S3152020CD20334A4262C26800212AB1036993420AD05B
S3152020CD305B1C036101E0826E1AB9016888470146AF
S3152020CD4001E0521E8266084602BDF8B5224C2068B4
S3152020CD500169884700283CD1234F97F85900042899
S3152020CD6023D107F15C052E68304600F08FFAC8B132
S3152020CD700020FFF71BF897F85A00810710D568681E
S3152020CD806861616860B10A68904222BF4968491C7F
S3152020CD90814201D20420F2BD80F3088880F30988DD
S3152020CDA0A868B04742F27E70F2BD08280FD1022033
S3152020CDB0FEF7FCFFBFF34F8F0E490F480A6802F497
S3152020CDC0E06202430A60BFF34F8F00BFFDE742F2C5
S3152020CDD07B70F2BD53544D50100000206BCA20208A
S3152020CDE015CA202000401F40842D0020B3C92020B2
S3152020CDF0F82D00200CED00E00400FA057CB50C008F
S3152020CE00164605461A4601D1002076BD100A10F096
S3152020CE100F0002D0012808D017E000F019F8B0B989
S3152020CE2000F0A2F86568A84776BD6B46284600F034
S3152020CE30D5F860B90098A34A0369284699695160B4
S3152020CE405B6832462146984776BD42F2D87076BD39
S3152020CE506A4628469EE0F8B50C00174606461A462E
S3152020CE6001D10020F2BD100A10F00F00954D02D0FE
S3152020CE70012816D02BE0304600F0EFF838BB6A4662
S3152020CE802146304600F086F818BB009B21463046C6
S3152020CE903A46DC68A668B047B0B90099CA681369D3
S3152020CEA013E06B46304600F099F890B900983A4640
S3152020CEB003693046996969609B682146984718B965
S3152020CEC000990A69536900E000232B60F2BD42F2E3
S3152020CED0D870F2BD7CB50546100A10F00F000C461E
S3152020CEE042F2D87602D0012813D024E0FFF7B0FFF3
S3152020CEF0F0B90099CA685069A0B12146284600F0A9
S3152020CF00ACF8C0B9009A21462846D3685C69A04768
S3152020CF1076BD6B46284600F061F848B9009801692D
S3152020CF20CA680AB9662076BD21462846904776BD2E
S3152020CF3014B9002076BD304676BD7CB50C0005465A
S3152020CF40164601D1002076BD00F087F810B142F2B6
S3152020CF50D87076BD6A462146FFF77BFF18B900F0C8
S3152020CF6003F8E568A84776BD009B21462846324629
S3152020CF70DC68704710B5534C206810B180470021DB
S3152020CF80216010BD10B54F4C606810B1804700213C
S3152020CF90616010BDF0B516000D4642F2D8771BD041
S3152020CFA049494A6832601DB916E003F11002326001
S3152020CFB033688BB11A68002A04BF5C68002C01D123
S3152020CFC0D96849B1904224BF59688142EDD32818A7
S3152020CFD0401E814228BF00273846F0BDF8B50646B8
S3152020CFE0174642F2D87C0BB3374882681A6019B9A3
S3152020CFF01CE005F114021A601D68BDB12A68002ABA
S3152020D00004BF6C68002C07D1A868002804BFEC68F0
S3152020D010002C01D1286948B19742EAD1AB68EA6849
S3152020D0208E195343B34228BF4FF0000C6046F2BD01
S3152020D03070B505460420002671B1234A946801E084
S3152020D040761C143444B1236833B12269002A03D0D4
S3152020D0509D42F5D10E60002070BDF8B50918491EF5
S3152020D0600022194BDC685E681701256905EBC2058D
S3152020D07005F17C04F55966682468AC4208BFAE42A7
S3152020D08003D0864228BFA14204D2521C012AE9D9C4
S3152020D0900020F2BD0120F2BD70B50B4D6E6803E075
S3152020D0A0006800B180471036F0680028F8D1AD68B6
S3152020D0B003E0096801B18847143529690029F8D188
S3152020D0C062BD0000942C0020100000200246012082
S3152020D0D000E0491E21B112F8013BFF2BF9D0002098
S3152020D0E070470000F0B5064604240D46002EA3B056
S3152020D0F018BF002D56D03821284605F01DF8382097
S3152020D100A8704320E8708120287066202871552039
S3152020D11068711020A8710020E8710EA805F027F864
S3152020D12004003FD10020214F8DF83B000EA9384620
S3152020D13005F0D7F9040035D1102205F1080138462B
S3152020D14005F006FA04002DD10D210AA8FEF75AFE75
S3152020D15006A805F04FFA05F10801802206A805F059
S3152020D1605DFA10200296059005F12800049005F11D
S3152020D17018000390002001900D2300900AAA102168
S3152020D18006A805F03AFD0A49802206A805F046FAA7
S3152020D190102005F10803009005F10802012106A8B8
S3152020D1A005F087FB204623B0F0BD00BF00C00C4011
S3152020D1B0AB89DCFE62B38B0708D0521E11F8013BE7
S3152020D1C000F8013B00F024808B07F6D1830740F03E
S3152020D1D0208000BF103A07D330B4B1E83810103A77
S3152020D1E0A0E83810F9D230BC530724BFB1E8081084
S3152020D1F0A0E8081044BF51F8043B40F8043BD2076E
S3152020D20024BF31F8022B20F8022B44BF0B78037061
S3152020D2107047121F17D35B0009D151F8043B20F821
S3152020D220023B1B0C121F20F8023BF6D20BE051F8D2
S3152020D230043B00F8013B1B0A20F8023B1B0C121F63
S3152020D24000F8013BF3D238BF121D521E24BF11F81D
S3152020D250013B00F8013BF8D87047000038B504465A
S3152020D2600D460020FEF7A2FD744800210560744A71
S3152020D27044601160026882F3088882F30988406836
S3152020D28080470020BDE83240FEF790BD00281CB51F
S3152020D2901EBF10F1010F6B49884201D1002016BD17
S3152020D2A06A4602210024FFF775FE20B90098017AEC
S3152020D2B0CA0748BF0124204616BD10B50246624B38
S3152020D2C000205B6800E01033D96861B11C7A04F035
S3152020D2D01104112CF7D119689142F4D25968491CAE
S3152020D2E09142F0D3012010BD2DE9FC4D564E574FCB
S3152020D2F0F0683C46016901F18C0509E02A7C02424E
S3152020D30005D0E268606953688169204698471834B9
S3152020D31020680028F2D14FF47A700024FDF754FEBD
S3152020D320A046A246CDE90001C34600F0A1FA80BB63
S3152020D330FFF7ACFF68B3F068016991F8AA20D007FF
S3152020D34003D400210020FFF789FF688A4FF6FF7259
S3152020D3509042DDE9002308BF41F28830A2FB00ABD2
S3152020D36003FB00BBFDF726FE0446884600208345A6
S3152020D37008BF82450DD0FDF71DFE001B61EB08017D
S3152020D380594506D301D8504503D300210020FFF765
S3152020D39065FF3E4600E0183631680029E6D0287C15
S3152020D3A00842F8D0F16830460A6890470028F2D023
S3152020D3B0002EDBD009E02A7C024218BFBE4203D0D1
S3152020D3C0F96838468A689047183738680028F2D195
S3152020D3D03046BDE8F68D38B500F052F800F080FAD8
S3152020D3E0194CE068016888470020FDF7E1FEFDF72B
S3152020D3F0B3FD216808688047E06842689047FFF7B8
S3152020D40073FF2062016900291EBF09680029884709
S3152020D410226A506900281FBF0168002910468847C4
S3152020D420206901688847256A216948688047E86815
S3152020D430C1680029F8D028468847F5E7EC1E002049
S3152020D44008ED00E0A95821201000002090AD2020D2
S3152020D450704700000A0018BF01220260704772B68A
S3152020D4600268521C026062B601680029FCD10120A4
S3152020D470704772B60168491EFFE7016062B67047A1
S3152020D48072B600200A49086062B6704772B608480C
S3152020D4900168491C0160704705480168022903D2AA
S3152020D4A00022026062B670470268521E02607047F0
S3152020D4B0702B00202DE9F041FDF738FF8046764C71
S3152020D4C01122204600210023E2FB08012246734F29
S3152020D4D0002505F0CFFB401E4600786042F21072F0
S3152020D4E06F480021E2FB08012246002305F0C2FBFB
S3152020D4F025223018E2FB0845401CB860664A0023E6
S3152020D5002046294605F0B6FB3618761CFE600020FC
S3152020D510BDE8F081002B2DE9F04105460E469046C8
S3152020D5204AD0042B02D1B109890101D0042044E03C
S3152020D5305A4F387830B92846FFF7BCFF00283CD10F
S3152020D5400121397000F06EF8002836D14FF400748E
S3152020D55006F03F06AC602869000C00042861296982
S3152020D5607868BA68000300F47040C2F30B021043B7
S3152020D57001434C4829616421A8604B4806436E60CC
S3152020D580D8F80000286200F04EF8B0B92868810546
S3152020D59048BF44F6E96010D46421284600F045F8B7
S3152020D5A050B9AC60284600F065F84FF480606421BD
S3152020D5B06860284600F039F80020BDE8F081F8B5EB
S3152020D5C005460E4614465BB3042B02D1B1098901C8
S3152020D5D001D00420F2BD314F387828B92846FFF7EC
S3152020D5E069FFF0B90121397000F01CF8C8B94FF451
S3152020D5F0007006F03F06A860284600F03BF83F2042
S3152020D6006421A86001206E60286300F00CF840B9E0
S3152020D6102868810502D544F6E860F2BD296C216090
S3152020D6200020F2BD64212846FFE72DE9F0478246F7
S3152020D6300F464FF47A700026FDF7C6FCA0FB07891B
S3152020D64001FB0799FDF7B6FC04460D46DAF80010D3
S3152020D650CA050CD5002FF9D0FDF7ACFC001BA9413B
S3152020D6604945F3D301D84045F0D344F6EB663046FE
S3152020D670BDE8F08701696FF3153101610749026919
S3152020D6804B68C9681B0303F47043090401F47C1119
S3152020D6900B431A430261704700CA9A3B602B002035
S3152020D6A00065CD1D3F00FFFF0000773E0A484FF062
S3152020D6B0FF31016041608160C1600161416181610A
S3152020D6C0C1610648016041608160C160016141619C
S3152020D6D08161C1617047000080E100E080E200E0C6
S3152020D6E000F01F028A4B000A914003EB800010B500
S3152020D6F0032494400368A3431943016010BD854940
S3152020D70000200A68C2F3022107290AD0824A11681A
S3152020D710C1F3005100291EBF1168C1F30051002911
S3152020D72000D0012070477D482DE9F84F009088468B
S3152020D73041F2F1074046BA46BB4608F1500401F0B3
S3152020D740EAFF30B1D4F810A0E0690090D4F814B0E4
S3152020D750A769DFF8CC91734D734EFFF7D0FFE0B168
S3152020D7602068002818D00121704871611121C5F840
S3152020D77014A071600121C5F804B08160B160AF604A
S3152020D780C9F8781031612F61C9F87C10F160EF60FB
S3152020D790016031602F60416066E021686068002961
S3152020D7A008BF002838D018B106203064C5F840A01C
S3152020D7B020685F4918B101228A60C9F808A0112281
S3152020D7C00120B267C5F878B0F067EF674860C9F8DE
S3152020D7D004700860C9F8007070676F6798F8450074
S3152020D7E0082808D1012171666F66F166EF66B16659
S3152020D7F0AF66F165EF6598F80C00032818BF01285D
S3152020D80002D1326700982867404601F08BFF18B175
S3152020D81001203066C5F860B0A168E068002908BFFD
S3152020D820002821D018B106207064C5F844A0A0682D
S3152020D83018B104213165C5F850A011210120316687
S3152020D840C5F860B070666F66F066EF66B066AF6644
S3152020D850F065EF6598F80C00032818BF012803D13E
S3152020D8601420706500986865BDE8F18F31487047AF
S3152020D87000207047FF2027490A680968920902F08C
S3152020D8800302032A13D8DFE802F0020D0F1109093B
S3152020D89011F0030102D0012902D005E001207047B2
S3152020D8A0102070472020704708207047022070479C
S3152020D8B0014681B0042081B1087B03280CD101F1D7
S3152020D8C0780291F84010480602D51320107003E004
S3152020D8D0507808B926211170002001B07047704772
S3152020D8E0032100E000214FF4C060F9E612490860C8
S3152020D8F00020704710490A680260002070470648B9
S3152020D9000168006A10F0020018BF0120704700004D
S3152020D91068C00F4004800F4040441F40F130010072
S3152020D920F0821F4070821F40FC801F4070831F4062
S3152020D9307C811F40002D310128800F4062F30F2269
S3152020D94062F31F4200B500BF130096469446103955
S3152020D95028BFA0E80C50FAD85FEA417C28BF0CC02B
S3152020D96048BF40F8042BC90728BF20F8022B48BF00
S3152020D97000F8012B00BD000070B50446042584B3B1
S3152020D9802168080F0B282CD1C1F30360012828D049
S3152020D99038BBC1F303161EB1022E05D002D306E0F2
S3152020D9A0802606E0C02604E04FF4807601E0802E13
S3152020D9B017D36068F608FFF769FC90B160683018C5
S3152020D9C0FFF764FC68B1164D102068606168324606
S3152020D9D005F10C00FFF7EEFB4FF400702E60A860D7
S3152020D9E00025284670BD70B5054604200C46002D1E
S3152020D9F018BF002C12D00A4E4FF4007106F12C00CD
S3152020DA00FEF700FA06F12C0106F10C00FFF76AFB5F
S3152020DA1020B906F12C012960B168216070BD000073
S3152020DA20C01C002070B505460E4602F0C3F804003F
S3152020DA300AD1012306F18002002100F01EFC707C11
S3152020DA40012804BF00213174204670BD78B50446D4
S3152020DA5089B000200F258DF80000012602950F2081
S3152020DA6001EB00158DF81020019301230396012147
S3152020DA7005F18002204602F064F902966946204686
S3152020DA8000F096BEF0B589B004460D4616461F46D0
S3152020DA9000F01BF8B8B90E210122029105EB0111E5
S3152020DAA0039201238DF80000204601F180028DF893
S3152020DAB010600197012102F044F901226946029261
S3152020DAC0204602F06CF909B0F0BD2DE9F843064650
S3152020DAD084B00C461746984604202CB304F5E675E8
S3152020DAE0687818B13046FFF7B1FFE8B9297804F1F4
S3152020DAF0B00902290AD1684699E80E1080E80E104E
S3152020DB0004F1C00090E80E1089E80E1043463A46EC
S3152020DB102146304601F075FF2978022904D16A462C
S3152020DB2092E83A0089E83A0005B0BDE8F083F8B5D6
S3152020DB300C4684B00421ECB194F8CC1104F1900564
S3152020DB4002290AD16E4695E8825086E8825004F151
S3152020DB50A00696E8825085E88250214602F012FAE5
S3152020DB60014694F8CC01022804D16A4692E859004D
S3152020DB7085E85900084605B0F0BD2DE9FE435FEA49
S3152020DB800108814615464AD0012D48D808F5E47665
S3152020DB903078002843D008F1400748463C6802F0F8
S3152020DBA0E1F93178A40904F0010465B939B1224696
S3152020DBB04846FDF7BCFB4146484601F0BAFDB07900
S3152020DBC088B101210CE041B1B97922464846FDF7BA
S3152020DBD0AEFB4146484601F0ACFDB07918B1002194
S3152020DBE0484602F067FA6A4602214846FDF7F1FBCD
S3152020DBF014B100984008009001AA00214846FDF75C
S3152020DC00E8FB0199009A0A20B1FBF2F1491C414315
S3152020DC10890800E000BF0846411E0028FAD1BDE849
S3152020DC20F7832DE9F0430546894689B017461E46D7
S3152020DC30484601F069FD80460022494600F049F910
S3152020DC403B464246494600F0EBF8040035D10220F7
S3152020DC5001218DF8000009220391029299F847109C
S3152020DC6009F5C87200291CBF1078002803D05378E4
S3152020DC7002931078039001978DF810800596106BEB
S3152020DC800690029809EB0011039B00F0CFF800F0D4
S3152020DC901EF8040011D13B46424649462846FFF746
S3152020DCA046FF040009D199F8CF0130B13B464246C0
S3152020DCB049462846FFF7E6FE0446284602F058F94C
S3152020DCC00122494600F005F9204601F0AFBB01228A
S3152020DCD069460292284602F062B82DE9F84789461D
S3152020DCE089B0002401210B228DF8004003910027C2
S3152020DCF0029280468DF8104099F8471000291EBFC1
S3152020DD0009F5CA710878002800F081F800224946D2
S3152020DD10404609F1500AFFF730FF04255AF8046BD4
S3152020DD20D6B13B46002249464046FFF7CEFE0400A8
S3152020DD3015D10197029809EB0011039B404601F16A
S3152020DD408002012101F0FDFF012269460292404610
S3152020DD5002F025F8040002D1F7196D1EDED14646C1
S3152020DD60ECB94FF0000809F150070425002057F898
S3152020DD70044B84B14346002249463046FFF7D7FE5E
S3152020DD8060B999F8CF1131B1434600224946304631
S3152020DD90FFF778FE10B96D1EA044E8D10446304620
S3152020DDA002F0E6F8012249463046FFF7E6FE2046F5
S3152020DDB00AB0BDE8F0872DE9F84105460E4689B020
S3152020DDC01746304601F0A0FC00F080F800F025F838
S3152020DDD004001BD100200121052200F06CF81EBF73
S3152020DDE006F5C6710878002800F011F800F01AF818
S3152020DDF0FFF76DFF040009D100F058F8040005D183
S3152020DE0096F8CF0110B100F04CF804463FE003D03D
S3152020DE104A7802920878039070473B46424631461C
S3152020DE20284652E60298039B06EB0011284601F16C
S3152020DE308002012101F085BF2DE9F84105460E46D5
S3152020DE4089B01746304601F05FFC00F03FF8FFF717
S3152020DE50E4FF04001BD100200121082200F02BF82A
S3152020DE601EBF06F5CE7108780028FFF7D0FFFFF7F2
S3152020DE70D9FFFFF72CFF040009D100F017F8040082
S3152020DE8005D196F8CF0110B100F00BF804462846AC
S3152020DE9002F06EF8012200F01BF820460AB0BDE8F9
S3152020DEA0F0813B46424631462846EBE53B464246F4
S3152020DEB0314628463BE601978DF8000003910292D1
S3152020DEC08DF8108096F8471000297047804600224A
S3152020DED03146284651E6F0B5054689B00E46144609
S3152020DEE01F46042084B124216846FDF78BFF03209A
S3152020DEF001228DF800006946029228460392079453
S3152020DF000897019601F04BFF09B0F0BDF8B50D46F4
S3152020DF101E468EB00746002101A8002300248C46E9
S3152020DF2080E81A101068042802D85168402917D38F
S3152020DF3001232B74106C000D00F00700401E0528CD
S3152020DF400CD8DFE800F003070903030502240CE0C0
S3152020DF5004240AE0012408E0032406E02C7474E05B
S3152020DF603068C0F30324002C6FD0002001220090BB
S3152020DF70012106908DF8240003208DF81400601EC0
S3152020DF800328CDF830D00D92079208910CD8DFE8DF
S3152020DF9000F005020802DFF87C0A04E0DFF8780AA0
S3152020DFA001E0DFF8780A0190012301AA384601F022
S3152020DFB0C8FE05A9384601F0F2FE002846D1306871
S3152020DFC0C0F3036000281FBF7068C0F30720002815
S3152020DFD00090641E0020032C287436D8DFE804F035
S3152020DFE0020E2319009841062FD4DFF8341A00F0A8
S3152020DFF02FF800F0C30040F040001DE00098810774
S3152020E00023D4DFF8201A00F023F8000240F4007011
S3152020E01012E00098810718D4DFF80C1A00F018F8BF
S3152020E02040F0020008E0009801060ED4DFF8DC1C40
S3152020E03000F00EF840F08000009001210420297481
S3152020E040297568750098A861697400200FB0F0BD05
S3152020E050C5F8C0100098704770B50C4605460022BA
S3152020E060002300268EB00AA9002081E84D000090CA
S3152020E07003210290DFF8986C8DF8140001208DF88A
S3152020E080041001210990012304900AAACDF820D05A
S3152020E090284603910A9601F054FE01A9FFF71AFE9D
S3152020E0A0C0B90099012201F0F7010091227400994C
S3152020E0B02275090401F47F0141F0042141F08101F8
S3152020E0C0C4F860110E2161750099A1610421617443
S3152020E0D084F8CF210EB070BD2DE9F84F0C460021D3
S3152020E0E0054692B08DF814104FF40070039101214B
S3152020E0F01746029004914CB303200AA910228DF8CA
S3152020E1000400089104F1800609920123324600F08A
S3152020E110B3F8012001A90390FFF7DCFDB0B90A98D6
S3152020E1200FF22C1810F1010F02BF0AA8416811F135
S3152020E130010F07D1826812F1010F04BFC06810F1C8
S3152020E140010F09D000F093F8002838D044F68E66C7
S3152020E150304613B0BDE8F08F002300222146FFF77A
S3152020E1605FFE0028F2D1092002210390102007907B
S3152020E170049B03988DF8041006EB0012CDF8188026
S3152020E18000F07AF801212846039101A901F007FE23
S3152020E1900028DBD1002300222146284601F0F2FE6A
S3152020E1A00028D3D1039000F05BF8089201A9FFF74D
S3152020E1B091FD0028CAD100F05AF80028C6D104F1D2
S3152020E1C040000122009001684FF0020B3224DFF834
S3152020E1D0449D0DF1380A41F0400101600098817973
S3152020E1E02846FDF7A4F801E00BF1010B641EADD003
S3152020E1F00EA8002100220023002680E84E00009849
S3152020E200DFF8103B01690BF0FF00494527BFDFF8F7
S3152020E210081B0E91DFF8002D0E9218430123CAF811
S3152020E22004000EAA0021284601F08BFD00F018F8E4
S3152020E23001A903962846089201F0B1FD060085D152
S3152020E24000F015F80028CFD1C7F800B080E70000ED
S3152020E25000112233445566778899AABBCCDDEEFF80
S3152020E260032110208DF804100AAA09907047102245
S3152020E2700AA9404602F05CBA0121284601F061BD78
S3152020E2802DE9F843CE684FF0010804464FF48070FC
S3152020E290002E47BFF61E08FA06F6761CF6082665D7
S3152020E2A04E68402E08D30F6BC7F3031608FA06F6DE
S3152020E2B0B6F5004F18BF304604F5E07600273060CB
S3152020E2C06FF07F4E0025BC46B94601EB490090F8F9
S3152020E2D0240058B108FA00F070453CBF8646CC464B
S3152020E2E085423EBFB0F5801F05464F4609F10109FC
S3152020E2F0B9F1040FE9D3AE45C6F804E035610CBF69
S3152020E300012000207072246DDFF8080C844225D36A
S3152020E31091F8580040B101F16000603110F80C40AE
S3152020E3201460C95D196023E001F1250010F81C0056
S3152020E330202802D0D82802D003E0212000E0DC20AB
S3152020E340106001F1250010F81700202802D0D828C7
S3152020E35002D00DE021200AE0DC2008E001F1250092
S3152020E36010F81C00106001F1250010F81700186025
S3152020E3700020BDE8F2832DE9FC4F85B015461A68AA
S3152020E380814600244FF00408C2F30350012802BF1F
S3152020E390A868C0F3C044002C00F07F810E460020E0
S3152020E3A03073069800229346924603AB01781820B4
S3152020E3B006F1500701F00F0186F8461029460092F3
S3152020E3C004AA01903046FFF75BFF3868DFF8441B2C
S3152020E3D0884224BF2021019106980168C1F3033089
S3152020E3E0002809D1069BCDF808902A463146484672
S3152020E3F0FFF78CFD5FEA000840F04F81A968C1F342
S3152020E400405038B128694FF0020AC0F3421B00F071
S3152020E4101F0008E0C1F3805030B12869410D01F07A
S3152020E420070BC0F304400090019B06F1D00142F275
S3152020E4300402202B18D105F15803187888B1D3F877
S3152020E440049042F20423C9F3002010B1DFF8CC0A4D
S3152020E45004E0C9F3C01020B1DFF8C40A08644B6475
S3152020E46006E0DFF8C00A01E0DFF8BC0A08644A6447
S3152020E4700120307340F206403866DFF8340D3864C8
S3152020E480049ADDF80490DFF8A40A02F0FF0242EA9B
S3152020E490094202430A60039B03F0FF0343EA094330
S3152020E4A0184308634FF48C60086606980168C1F308
S3152020E4B0036060B106994868020608D000F0FF0084
S3152020E4C04FF0000B0090ECB1400000901AE0CCB148
S3152020E4D00199202905D1DFF8580A3863DFF8540A34
S3152020E4E0786302983146FFF79DFA5FEA00085ED1ED
S3152020E4F002986A463146FFF7EFFD5FEA000856D1BB
S3152020E5004FF0000B0198182819D14CB1ED20316C11
S3152020E51040EA094041F04001316440F00A403AE0A7
S3152020E520A968C1F3405010B12869000A2CE0C1F334
S3152020E530805010B12869000E26E0032021E00CB17E
S3152020E540EE20E4E705F15801087870B14968C1F357
S3152020E550401018B1EC204FF0020A15E0C1F300104C
S3152020E56070B16C204FF0000A0EE0A968C1F340502C
S3152020E57008B1EC2008E0C1F3805008B16C2003E0FC
S3152020E580132000218B460091C0B240EA094040EA80
S3152020E5900A6040F0006040F48060002138630698CD
S3152020E5A006F2CD190268C2F3031040B1012874D1B6
S3152020E5B06A68402A03D32A6CC2F3402018B90098EF
S3152020E5C05844009033E0120C12F0050F18BFA521F5
S3152020E5D00BD1900709D5069B02982A463146FFF78C
S3152020E5E03BFD5FEA000858D10121286C06F5B87258
S3152020E5F0800A10F00A0F0AD06FF0F92010605060C0
S3152020E600019820280DD140F2FF63936009E010F095
S3152020E610110F42D04FF0062010605060DFF8940B87
S3152020E62090600120BBF1000F89F8000012D10098DC
S3152020E63060B100F0FF0124B1DFF8D80601437963E9
S3152020E6401EE0DFF8740B0143796320E042F2044098
S3152020E650786314E0BBF1010F06BF062009090720C5
S3152020E66041EA80210098000400F47F00014341F014
S3152020E670485141F400717963DFF8A81CB96334B19D
S3152020E680012089F80100306C40F040003064316C64
S3152020E6904FF0000841F010013164404607B0BDE834
S3152020E6A0F08F2DE9F84F0D0096B0144608BF4FF095
S3152020E6B0040869D0834608236A460021FFF70BFC0D
S3152020E6C05FEA000860D10098DFF85C1C884218BFFA
S3152020E6D044F68B6858D19DF8041029609DF8067061
S3152020E6E07F1C0A2F88BF0A2708210CB14FF400610E
S3152020E6F0FB0002AA5846FFF7EEFB5FEA000843D14B
S3152020E70064212846FDF77EFB4FF0000A4FF68479D8
S3152020E71004E0012085F858000AF1010ABA4533D2CF
S3152020E72002A800EBCA000178C27901EB0222B2F5D9
S3152020E7307F4F18BF4A45EFD100210223C6185B1E02
S3152020E740367946EA0121F9D5C678B60004B1090200
S3152020E750B2F57F4F0DD1502E05F10802584688BFBD
S3152020E76050263346FFF7B7FB5FEA00080CD16E60D0
S3152020E770D2E74A45D0D1334605F15C025846FFF709
S3152020E780AAFB5FEA0008C4D0404617B0BDE8F08F48
S3152020E79078B5490089B003240191002501268DF8FA
S3152020E7A000406946029503968DF8105007920893EB
S3152020E7B001F0F5FA0AB070BD490030B589B00224BF
S3152020E7C00191002101258DF810108DF80040694611
S3152020E7D0029503950592069301F0E1FA09B030BD22
S3152020E7E02DE9F847054687B00C460320E07304F14F
S3152020E7F045000821017058212164032121731AB173
S3152020E800216C41F001012164012204F1500682701D
S3152020E8100F20B08504F5C277F2854FF40070F86397
S3152020E8204FF48020386404F2C918C4F8D001214658
S3152020E83088F800202846FFF7F5F8002861D100F057
S3152020E840F5F80DF10C0A80E80E10DFF8E00ADFF863
S3152020E850E01A03900123CAF8041003AA01212846AE
S3152020E86001F06FFA00F0E2F8DFF8C89A80E80E107F
S3152020E870DFF8C40ACDF80C90CAF80400012303AAB5
S3152020E880284601F05EFA4FF418400223029002AA8D
S3152020E89040F255512846FFF78FFF002831D1082313
S3152020E8A06A4610212846FFF773FF002829D10098B1
S3152020E8B0DFF8882A0199904289B2019108BFB1F5E3
S3152020E8C0B24F40F0A48008236A4627212846FFF726
S3152020E8D05FFF002815D10098C0F30720A0F117016B
S3152020E8E00A29009080F093800122824032604FF4E2
S3152020E8F070400290022302AA00212846FFF75CFFDF
S3152020E900002840F08180DFF838CADFF838EAC6F8D8
S3152020E9104CC04AF20475DFF8301ADFF830CA71632A
S3152020E9204FF08721B563DFF8282AC6F854C0DFF8D0
S3152020E930243AB565DFF83C5CDFF83CCCC6F830904D
S3152020E94031647264B364C6F85090DFF8309C316627
S3152020E9507266B366F26631677567C6F878C0F56762
S3152020E96004F1D006C6F84CE0DFF814ECC6F850E0E7
S3152020E97004F5A874C6F830E0DFF808ECC6F8549001
S3152020E980DFF8049CC6F834E048F2307E31647264A5
S3152020E990B36431607260B360C6F80C9031617261E5
S3152020E9A0B361F26131627562C6F828C0F562C6F895
S3152020E9B038E031667266B366C6F86C903167726746
S3152020E9C0B367F26721602161DFF8C01BE161022174
S3152020E9D06560C4F808C0E5606261A36139710321CE
S3152020E9E07971022139700121797002213973092127
S3152020E9F079730421397205217972042139740B2106
S3152020EA007974012188F8031008B0BDE8F08744F610
S3152020EA108D60F9E735040124050401243F040124EF
S3152020EA20010401200104022031040120002103A831
S3152020EA30002200238C4670472DE9F04F8DB090465A
S3152020EA40D8F80020C2F30353052B0CBF012500253F
S3152020EA50C2F30339B9F1000FC2F3034418BFB9F149
S3152020EA60030F09D10F46824607F130063CB1032C0D
S3152020EA7002D1B9F1000F1AD14FF0040B41E16846BB
S3152020EA80FEF738FF83460020FEF730FFBBF1000F4C
S3152020EA9007D16A463946504600F0CBFC5FEA000B88
S3152020EAA0ECD1002038731020306103200CE00321A4
S3152020EAB0397310213161D8F80000C0F3035004289F
S3152020EAC004BF5020306106200C9054EA09003946B4
S3152020EAD008BF0125B9F1030F0CBF0820012070754E
S3152020EAE05046FEF79FFF5FEA000BC7D10CB90020E6
S3152020EAF003E0002D14BF102020200FF66C310123B7
S3152020EB000A180121504601F01CF900200122059007
S3152020EB1004A98DF8200003208DF8100002A80B9060
S3152020EB2050460692079201F03AF95FEA000B04BF9D
S3152020EB309DF80800C228A1D102A9002C4FF48030CC
S3152020EB4007F5E07A85F0010507BF897830394A79BB
S3152020EB50A2F1300100FA01F131624FF48051CAF856
S3152020EB6004104FF48071CAF810000320CAF8001050
S3152020EB7038731020002C3061019507F1B00508BFAD
S3152020EB80B9F1030F43D1012007213874022078746C
S3152020EB9001207882062078750120387500208DF88E
S3152020EBA0000001988DF80310DFF8E4194FF00422B5
S3152020EBB0DFF8E03990B1822402208DF80140B86137
S3152020EBC02B636A63A963D8F80000C0F303100328D7
S3152020EBD00CBF012000208AF80A0015E0812002249B
S3152020EBE08DF80100DFF8B009BC612B636863012032
S3152020EBF0A9633877072087F82100012087F820008D
S3152020EC0030602B646A64A9640098FEF76FFE40F298
S3152020EC100640B9F1000F2860DFF89405306617D139
S3152020EC2001203873DFF874093065DFF874097065C0
S3152020EC30BC48286642F204006866DFF86809286224
S3152020EC40DFF8640928654FF48C60C7F8300158E056
S3152020EC50019848B9012302210C24092008224FF0CB
S3152020EC600509DFF848C908E0212322212C24292060
S3152020EC7028224FF00A09DFF838C98902C6F850C081
S3152020EC8041EA0949800240F4417041EA826249EA18
S3152020EC90846441F4487144F0032444F020047465CC
S3152020ECA09C0644EA8324DFF80C39B06523432B6184
S3152020ECB0DFF804392343336744F003237367B367AC
S3152020ECC0F067DFF8F80820432866DFF8F4080243C7
S3152020ECD0DFF8F0086A6620432862DFF8EC086962CC
S3152020ECE020432865DFF8E40869650443C7F83041E6
S3152020ECF0019818B1316941F04001316102208AF82A
S3152020ED000C0058460DB0BDE8F08F00003E040220CE
S3152020ED108504012400B204A6EE04208A2DE9F84FAA
S3152020ED209CB0044616460D463068C0F30352072A87
S3152020ED30C0F303400CBF01270027A8B96846FEF779
S3152020ED40D9FD81460020FEF7D1FDB9F1000F07D16C
S3152020ED506A462946204600F06CFB5FEA000910D15E
S3152020ED6000202873102002E00320287350202864D6
S3152020ED70082085F8450029462046FEF753FE5FEAFF
S3152020ED80000977D130680FF61012C0F3034008B976
S3152020ED90012303E003286DD10123103201212046CF
S3152020EDA000F0CFFF0820002285F8450003A9204641
S3152020EDB0FFF777FC5FEA00095CD100F005FA3800FE
S3152020EDC003D1502028640320287305F1500140F2F6
S3152020EDD006400866DFF8D8030864306805F5E6782B
S3152020EDE005F1D00442F2010ADFF8E4B7C0F303426A
S3152020EDF0032A1CBFC0F3033003283DD1DFF8D407F4
S3152020EE000865DFF8D4070863DFF8D007486340F2A7
S3152020EE1006700867DFF8C8072060DFF8C807206378
S3152020EE204FF4EC602066DFF8C00720644AF20430F5
S3152020EE3060643068C0F30340C8B9062182228DF869
S3152020EE4000008DF803108DF801200098FEF74EFD66
S3152020EE500120287402206874E720A86100F0AEF90A
S3152020EE604FF00420C4F810B06061C4F818A0022026
S3152020EE7088F80000484697E10028FBD10868029EC2
S3152020EE802A4AB0F1807F06F0FF0627BF20208E2356
S3152020EE901820C22346EA004643EA0043164326604A
S3152020EEA0019E06F0FF0646EA004632432263DFF83B
S3152020EEB03C27134323644FF40E5363644FB9DFF882
S3152020EEC030070863DFF82C074863012088F8020002
S3152020EED01BE00E68CB23C4F810B0DFF81C776761DF
S3152020EEE0B6F1807FC4F818A028BFCC230C2643EA8D
S3152020EEF00040AE6101262E7406266E7501262E75DB
S3152020EF0010430863DFF8F40648634FF48C602066CC
S3152020EF10B0E7000001000001ED04188A3E04200A13
S3152020EF2034042008120420080204180800040008CB
S3152020EF3013042008042401002DE9F84F9CB08146B3
S3152020EF4010680D4644F68D684FF0000AC0F3035032
S3152020EF5009280CBF01240024042085F845001068C8
S3152020EF60C0F30347C0F3033610202864BFB9684690
S3152020EF70FEF7C0FC80460020FEF7B8FCB8F1000F53
S3152020EF8007D16A462946484600F053FA5FEA000828
S3152020EF9058D1012085F80CA085F845000EE0022FD7
S3152020EFA002D10320287309E0032F4BD10320287395
S3152020EFB0082085F845000CB94FF0010A002E1CBF09
S3152020EFC0022E032E3ED156EA070008BF0124022E28
S3152020EFD008BF042002D0032E02D1082085F8450040
S3152020EFE0286C002C294614BF20F0400040F0400019
S3152020EFF028644846FEF716FD5FEA000822D144B170
S3152020F000022F02D0032F02D00CE010200BE020206C
S3152020F01009E0022F02D0032F02D003E0302002E0A5
S3152020F020402000E000200FF2906101230A180121E0
S3152020F030484600F086FE524603A94846FFF731FB94
S3152020F0405FEA000840F0AF8000F0BEF8032005F10B
S3152020F0508001287340F2064255480A6308613CB96C
S3152020F0604FF0220A2C23292028274FF00C0E06E0C9
S3152020F0704FF0020A0C23092008274FF0060E4FEAEC
S3152020F080066909F040794FEA062C0CF4407CCDF82D
S3152020F090009049EA0C0949EA8A6ADFF864B54CEA05
S3152020F0A00E0E022E4EEA832E4BEA0A0BC1F800B032
S3152020F0B0009B43EA0E0305F5807E43EA80631CBF4E
S3152020F0C0032E002043F480234B604AF0201343F480
S3152020F0D080630B65DFF82C3543EA0A03CEF800302F
S3152020F0E0DFF8243543EA0A03CEF810304CEA87238A
S3152020F0F04CF48C67CEF8307043F08003CEF8143071
S3152020F10016D149EA8063DFF8040542EA0C02184347
S3152020F110086202200A6485F8CC010020022EA8610C
S3152020F12008BF4FF4802003D0032E02D14FF40020B5
S3152020F130A86124B9A86940F40000A86106E02A6CD9
S3152020F140012042F080022A6485F87900DFF8C00485
S3152020F150086642F2030048660120002E287414BF58
S3152020F16002200020687400F029F800208DF8000085
S3152020F1703CB1022E08BF41210AD0032E0BD181207B
S3152020F18009E0022E08BF422005D0032E03D182217A
S3152020F1908DF8011001E08DF8010008218DF803106B
S3152020F1A00098FEF7A3FB40461DB0BDE8F08F000077
S3152020F1B005040424001E1032003204260620687519
S3152020F1C0012028756882704701AB02AA03A9284628
S3152020F1D0FFF756B82DE9F8410D4604241646002D92
S3152020F1E099B0804618BF002E00F098804FF4007109
S3152020F1F02846FCF707FE05F144070120B8704FF09A
S3152020F2008070F860DFF80C042860DFF80C04686052
S3152020F21003206873A873012085F8C8013068C0F3DD
S3152020F2200360002808DD7068C0F30340012803D15D
S3152020F230286C40F4807028643068010D01F00F019D
S3152020F240092961D8DFE801F0050546484E4E545479
S3152020F2505A5AC0F30340002856D1DFF8C0037C70E9
S3152020F260F863DFF8BC03386429464046FEF7DAFB0C
S3152020F270040049D13068C0F30310012810D105F5C8
S3152020F280B8706FF0F92101600023416040F2FF61E0
S3152020F2908160002229464046FEF7D8FB040033D160
S3152020F2A031680FF284300123C1F3034100EB0112B0
S3152020F2B00121404600F045FD002269464046FFF7E1
S3152020F2C0F0F9040020D133466A4629464046FFF706
S3152020F2D052F818E0012200E0002229464046FFF796
S3152020F2E07FFA10E0324629464046FFF7A5FB0AE082
S3152020F2F0324629464046FFF711FD04E0324629468C
S3152020F3004046FFF719FE044634B92846FEF7D0FAC0
S3152020F310307800F00F00B8700121397020461AB0DD
S3152020F320BDE8F0810426017C534644502087188B63
S3152020F330108F02A3A087188B108F04A7005100528C
S3152020F340008770870087A087108F0CB3108F0BB78C
S3152020F3500087AA87008705872DE9F04180460C463D
S3152020F360042074B304F5E2759F1829687F42494228
S3152020F37001EA02066A790F407F420AB9E96889B90B
S3152020F380BE421ED200F01FF8002804BF2A68961914
S3152020F390F6D016E0324621464046FEF74DFD80B98E
S3152020F3A0E9688E19BE420CD2E96836EA010002D1FC
S3152020F3B0B81B8842EED200F006F8002808BF29683C
S3152020F3C0EFD0BDE8F081324621464046FEF7F3BC19
S3152020F3D02DE9F043814604201746002989B01D4691
S3152020F3E018BF002F22D0109C04B308464FF6FF7872
S3152020F3F000F08AF90321012200238DF800100392C0
S3152020F40002938DF810004445019507976946484692
S3152020F4108CBF46462646089600F0C1FC30B9A41B70
S3152020F4207519B608002C07EB8607ECD109B0BDE884
S3152020F430F0832DE9F8430E4614460421002C92B081
S3152020F440804604D060782178884208BF002100F0C9
S3152020F4508D8006F1450708203870607803254FF007
S3152020F4600109422818BF412802D1042002253870DC
S3152020F4706078822814BF42284FF0210900200122DB
S3152020F4800A9020218DF834008DF8240001A80B92B3
S3152020F490FCF7B8FCE078290201AA06280DD030D343
S3152020F4A0082801D013D32CE040F206430B4340F228
S3152020F4B0FF4001430193116120E040F266430B4354
S3152020F4C040F2994001430193022011611AE041EA5A
S3152020F4D08921B9F1210F41EA056141EA896141F487
S3152020F4E0190041F4CC0140F0660041F099010190C9
S3152020F4F0116103D1306C40F04000306402210C9120
S3152020F50001E001200C90012106F1500079704FF086
S3152020F510807101603F4931603F49716003217173D9
S3152020F520B173012186F8C8110A214162314640462D
S3152020F530FEF778FA010019D10C9B01AA0121404639
S3152020F54000F0FFFB09A9404600F029FC014635487A
S3152020F55002684FF47A73B2FBF3F3009303E000BF03
S3152020F560009C641E009400980028F8D1084613B009
S3152020F570BDE8F0830087558700870287108F80A3F8
S3152020F5800087188B108F0087008780870087108739
S3152020F5900004012072040004000402040C04200844
S3152020F5A00830042421042008DC042008EC07130753
S3152020F5B0EE8711870603F9030503FA031203ED03E9
S3152020F5C0200304032103DE03DC03230360039F03BC
S3152020F5D081040004050704A7FD07208B06B304A792
S3152020F5E02107208BDC07208B1207208B0004000BA1
S3152020F5F0FD04208B0CB304A7000401040C3304273C
S3152020F6000B042000D8042000020420000504040056
S3152020F6107104000446434642000401560304180898
S3152020F62004240100C80000205A0418080830FF24AA
S3152020F63000000000000000005A0518090831FF25A7
S3152020F64000000000000000005A06180A0832FF2693
S3152020F6500000000000000000000000000000000064
S3152020F66000000000000000009F040324000000008A
S3152020F67000000000000000009F076007200B0427E1
S3152020F68000000000000000009F876087208B04A7D1
S3152020F69000000000000000005A0418080830FF244B
S3152020F6A000000000000000005A07208BFFA7000062
S3152020F6B000000000000000005A0418080830FF242B
S3152020F6C000000000000000005A06180AFF2600004D
S3152020F6D000000000000000005A07180BFF2700003A
S3152020F6E000000000000000005A06188AFFA600002D
S3152020F6F000000000000000005A07208BFFA7000012
S3152020F700000000000000000090F8400010F00400E7
S3152020F71018BF0120704790F8400010F0200018BF35
S3152020F7200120704790F8400010F0010018BF0120FA
S3152020F73070472DE9F84F824604200024BAF1000FA5
S3152020F7400E4684B008BFDFF89849002C18BF002E3B
S3152020F7507BD0317B042978DA032901AF13D196F89F
S3152020F760400081070FD46A4602215046FBF731FE1E
S3152020F7700098DFF8701988420AD396F840100A06B6
S3152020F78006D4792001E04FF48070019078603BE028
S3152020F79000254FF47A784FF0640906EB450078303F
S3152020F7A0417821BB007819FB00F0C8B9306C03A939
S3152020F7B0800900F0010B5A465046FBF72FFE03998D
S3152020F7C0BBF1000FDFF82009B0FBF1F101D1490888
S3152020F7D000E089084B2208FB01F1B1FBF2F105E09C
S3152020F7E04B23B0FBF3F14B43834200D2491C4029E3
S3152020F7F028BF3F21490201F4FC4141F4807147F89A
S3152020F80025106D1C022DC8D32068400800F0010069
S3152020F81090F0010003D0226842F002022260316D6E
S3152020F82004F1C003002907BF726D002A01991960CF
S3152020F830B16D002907BFF26D002A7968596018B189
S3152020F840206820F002002060002005B0BDE8F08F5F
S3152020F85010B504460420002C18BF002A0FD073B1FF
S3152020F860DFF88408B0FBF2F04343B1FBF3F000E06D
S3152020F870401C00FB03F28A42FAD32060002010BDF0
S3152020F88038B584B04FF6FF740194009400B909B9B5
S3152020F890042028E003AA0221FBF79BFD02AA0121CE
S3152020F8A00020DFF84858FBF794FD039A4FF4806335
S3152020F8B0294601A8FFF7CCFF029A4FF480632946F8
S3152020F8C06846FFF7C5FF0198DFF82438A04288BF95
S3152020F8D001940098A04288BF009401980099C1EA1B
S3152020F8E0004200201A6005B030BDD0F8E010CA07CB
S3152020F8F0FBD5D0F8E0209107FBD570472DE9FC47B2
S3152020F9000D46042100220028009250D1002D4ED0F1
S3152020F91005F15008914605F5C8764FF4106A58F837
S3152020F920040BDFF8BC1701EB8904800A2066687B6C
S3152020F930AF7BE97B95F84020400100F4787007F0F2
S3152020F9401F070743C90201F4F0410F431007686FD0
S3152020F95048BF47F4806768B101AA02210020FBF73F
S3152020F96038FD019A696F01236846FFF771FF0099D8
S3152020F97047EA0147276795F8470000281EBF3178B8
S3152020F980480110F0E00F09D07078491E490301F490
S3152020F9906041000200F47060084300E0504609F1FF
S3152020F9A00109B9F1040FC4F88000B8D30021084614
S3152020F9B0BDE8F6870422002810B518BF00291ED0DE
S3152020F9C040310A79012A0AD1C268097852085200A0
S3152020F9D042F040024B0748BF42F00102C260C16894
S3152020F9E0DFF8102741F02001C160002100EB8103C0
S3152020F9F0491C1C6A144003291C62F7D30022104696
S3152020FA0010BD78B5044689B0042031B300200125E5
S3152020FA1003268DF80000039502968DF81020019379
S3152020FA2091F84720002A1EBF01F5C47210780028BD
S3152020FA3003D053780293107803900298039B01EB0E
S3152020FA4000150121204605F1800200F07AF90121D6
S3152020FA5020460291694600F0A2F90AB070BD78B519
S3152020FA600424002889B00D4616463DD1002D3BD0D2
S3152020FA70DFF884060068C0F3012020B1687C0228C4
S3152020FA8008BF002430D0012101968DF80010687D12
S3152020FA90334600220290297D00200694039105F109
S3152020FAA01801059129468DF81000FFF7AAFF029824
S3152020FAB0039B05EB001100F078F800F071F80400A4
S3152020FAC012D1688A58B9697C022918BF032906D021
S3152020FAD033460022294600F055FA044604E06421E4
S3152020FAE048430021FBF7EEFC20460AB070BD2DE9E5
S3152020FAF0F0430424002889B046D1002944D001208F
S3152020FB0000238DF800000027019264258DF81030FF
S3152020FB1088460694914608EB870202F120035978FD
S3152020FB20002939D0DFF8D00508EB07060068C0F396
S3152020FB30012010B1707F02282ED00291197802F16F
S3152020FB40300300220391414605934B460020FFF7C0
S3152020FB5058FF040018D10298039B08EB001100F0EF
S3152020FB6024F800F01DF804000ED1B8F8120078B958
S3152020FB70717F022918BF03290AD04B46002241460D
S3152020FB8000F000FA040007D0204609B0BDE8F08333
S3152020FB9068430021FBF796FC7F1C032FBBD3F3E79A
S3152020FBA00120694602900020F9E0002001F1800220
S3152020FBB00121C6E002460420002A2DE9F84F0D46F1
S3152020FBC014D1002D00F0A1802A7C002A04BF297F91
S3152020FBD0002906D095F8402012F0500602D00126A2
S3152020FBE000E000262968DFF81425914240F08D8018
S3152020FBF0002005F14507FBF7E4FB29460020FDF709
S3152020FC0092FD300003D000220121002001E000F0E7
S3152020FC107EF8FBF78CFB0020DFF8C444FBF7CCFBF7
S3152020FC2000F07CF823684DF60F7043F00203236022
S3152020FC3021682A7B01403878082808BF41F40051E2
S3152020FC40120102F03002114341F07F4141F47F013D
S3152020FC50002021602946FFF713FEA06820F40040EB
S3152020FC60A06095F84010C80703D5A06840F400206E
S3152020FC70A06029462046FFF79DFE29460020FFF753
S3152020FC803DFE29460020FFF754FD00F047F8287C4A
S3152020FC9088B100F04FF859F8048BB8F1000F06D040
S3152020FCA0524629460020FFF7DAFE18B9C244BBF196
S3152020FCB0010BF0D148BB287F88B100F03BF859F8DA
S3152020FCC0048BB8F1000F06D0524629460020FFF7B4
S3152020FCD00EFF18B9C244BBF1010BF0D1A8B99EB1D1
S3152020FCE0206840F00200206000F011F8FBF71FFB8F
S3152020FCF029460020FFF7C4FD29460020FFF719FDDD
